:04000000FEEF0FF010
:100300000000835095908350958495948380010ECE
:100310008316D8B48EEF01F090EF01F093EF01F067
:10032000838494EF01F08394026A000E016E014A07
:10033000022A02BEA5EF01F02C0E015C010E02584C
:10034000D8A0A5EF01F0A7EF01F097EF01F083909F
:10035000010E8316D8B4AFEF01F0B1EF01F0B4EFA6
:1003600001F08384B5EF01F08394046A000E036EFC
:10037000034A042A04BEC6EF01F02C0E035C010EF2
:100380000458D8A0C6EF01F0C8EF01F0B8EF01F0B3
:0E03900086EF01F0FEEF0FF0000181EF01F0AB
:041FFC00CCEF01F035
:020000040030CA
:08000000FFC80F3E3C9D81FF8B
:00000001FF
