:04000000FEEF0FF010
:10030000000083509590835095948380010E83164E
:10031000D8B48DEF01F08FEF01F092EF01F08384FC
:1003200093EF01F08394026A000E016E014A022AE3
:1003300002BEA4EF01F02C0E015C010E0258D8A001
:10034000A4EF01F0A6EF01F096EF01F08390010E0B
:100350008316D8B4AEEF01F0B0EF01F0B3EF01F0C7
:100360008384B4EF01F08394046A000E036E034AA1
:10037000042A04BEC5EF01F02C0E035C010E0458E4
:10038000D8A0C5EF01F0C7EF01F0B7EF01F085EF9E
:0C03900001F0FEEF0FF0000181EF01F022
:041FFC00CBEF01F036
:020000040030CA
:08000000FFC80F3E3C9D81FF8B
:00000001FF
